:100000000C9434000C9451000C9451000C94510049
:100010000C9451000C9451000C9451000C9451001C
:100020000C9451000C9451000C9451000C9451000C
:100030000C9451000C9451000C9451000C945100FC
:100040000C9451000C9451000C944C030C945100EE
:100050000C9451000C9451000C9451000C945100DC
:100060000C9451000C94510011241FBECFEFD8E026
:10007000DEBFCDBF11E0A0E0B1E0E2ECF6E002C0EF
:1000800005900D92AA30B107D9F721E0AAE0B1E0BE
:1000900001C01D92A231B207E1F70E94D8000C9472
:1000A0005F030C940000249A209A229A219A399A8C
:1000B0003A9A3B9A3C9A3D9A569A559A089584B139
:1000C000886284B93B9A579A8CB582658CBD089535
:1000D0008EBD0DB407FEFDCF0895FC0171836083D2
:1000E000538342833583248308951F93CF93DF93F3
:1000F000EC01142F288139812115310521F021309F
:10010000310521F402C0439801C05F98862F0E94F8
:100110006800812F0E94680088819981009719F0FA
:10012000019721F402C0439A01C05F9ADF91CF91F9
:100130001F910895CF93DF93EC010E945F004FEF72
:1001400069E0CE010E94750047E06BE0CE010E949D
:10015000750043E06AE0CE010E94750041E06CE06A
:10016000CE010E947500DF91CF9108951F93CF9328
:10017000DF93EC011C818A81180F4FE0612FCE01C3
:100180000E9475001150C9F7DF91CF911F9108951A
:100190001092C50087E68093C400E1ECF0E0808116
:1001A00088698083E2ECF0E0808186608083089536
:1001B000CF93DF93CDB7DEB72C970FB6F894DEBFA1
:1001C0000FBECDBF78948AE091E00E9453000E9458
:1001D000C80024E030E044E050E060E070E0CE0190
:1001E00007960E946D008FE39CE90197F1F700C02C
:1001F000000024E030E044E050E061E070E0CE0137
:1002000001960E946D00EFE3FCE93197F1F700C021
:100210000000CE0107960E949A008FE39CE90197A7
:10022000F1F700C00000CE0101960E949A00EFE3B2
:10023000FCE93197F1F700C00000CE0107960E945B
:10024000B600FFEF26E781E0F15020408040E1F763
:1002500000C00000CE0101960E94B6009FEFE6E7C5
:10026000F1E09150E040F040E1F700C0000000E014
:1002700011E0F80140810F2EFDECFF2EF02D4F9D77
:10028000412D112446954695469568E0CE01079686
:100290000E947500F80180818F9D912D1124969503
:1002A00096959695990F292F220F220F920F891B51
:1002B000482F406866E0CE0107960E947500409185
:1002C00001014F9D412D112446954695469562E0CA
:1002D000CE0107960E94750002E011E0F80140810E
:1002E0004F9D412D112446954695469567E0CE01D8
:1002F00007960E947500F80180818F9D912D112431
:10030000969596959695990F292F220F220F920F69
:10031000891B482F406865E0CE0107960E94750052
:10032000409103014F9D412D1124469546954695D8
:1003300061E0CE0107960E94750004E011E0F8012B
:1003400040814F9D412D112446954695469561E08B
:10035000CE0101960E947500F80180818F9D912D3C
:100360001124969596959695990F292F220F220F75
:10037000920F482F491B65E0CE0101960E9475003F
:1003800005E011E0F80140814F9D412D1124469573
:100390004695469564E0CE0101960E947500F801ED
:1003A00080818F9D912D1124969596959695990F04
:1003B000292F220F220F920F482F491B66E0CE01F2
:1003C00001960E94750006E011E0F80140814F9D02
:1003D000412D112446954695469568E0CE0101963B
:1003E0000E947500F80180818F9D912D11249695B2
:1003F00096959695990F292F220F220F920F482F2D
:10040000491B62E0CE0101960E9475000F2EF0E0BC
:100410008F2EF1E09F2EF02D0F2EFDEC3F2EF02DB4
:100420000F2EF1E06F2EF1E07F2EF02D0F2EF2E077
:10043000AF2EF1E0BF2EF02D0F2EF3E04F2EF1E0A6
:100440005F2EF02D0F2EF4E0CF2EF1E0DF2EF02DF9
:100450000F2EF5E0EF2EF1E0FF2EF02D80910C0134
:10046000882321F080910B01811130C0809111010E
:100470008F3F09F0F0C080910C018111F1C0EBC0F9
:1004800081E080930D011092100110920F011092E3
:100490000E0106C08091110180931001109211018C
:1004A00010920C01DBCF80910C018111DFC0D6CFFF
:1004B00010920F0110920E01109210011092110172
:1004C00010920D0181E080930B01C8CFF4014081AF
:1004D000439D412D112446954695469568E0CE01F1
:1004E00007960E947500F4014081439D812D1124DF
:1004F000869586958695880F982F990F990F890F65
:10050000481B406866E0CE0107960E947500F30123
:100510004081439D412D112446954695469562E0C4
:10052000CE0107960E947500F5014081439D412D43
:10053000112446954695469567E0CE0107960E94A0
:100540007500F5014081439D812D11248695869586
:100550008695880F982F990F990F890F481B40682F
:1005600065E0CE0107960E947500F2014081439D2F
:10057000412D112446954695469561E0CE0107969A
:100580000E94750041E068E0CE0101960E9475006E
:10059000F6014081439D412D11244695469546958F
:1005A00061E0CE0101960E947500F6014081439DF5
:1005B000812D1124869586958695880F982F990F01
:1005C000990F890F481B65E0CE0101960E947500C6
:1005D000F7014081439D412D11244695469546954E
:1005E00064E0CE0101960E947500F7014081439DB1
:1005F000812D1124869586958695880F982F990FC1
:10060000990F890F481B66E0CE0101960E94750084
:10061000F8014081439D412D11244695469546950C
:1006200068E0CE0101960E947500F8014081439D6B
:10063000812D1124869586958695880F982F990F80
:10064000990F890F481B62E0CE0101960E94750048
:1006500010920B010BCF80910D01811124CFFECEA2
:10066000809110018F3F09F015CF0ACF80910E01C4
:1006700090910F0120911101FC01E050FF4F208368
:1006800010920C010196893091050CF011CF9093D6
:100690000F0180930E01E2CE1F920F920FB60F92C0
:1006A00011248F938091C6008093110181E0809383
:1006B0000C018F910F900FBE0F901F901895F8941A
:0206C000FFCF6A
:0A06C20023502332350622611C008C
:00000001FF
